:100000000C94D4000C94FC000C94FC000C94FC00A8
:100010000C94FC000C94FC000C94FC000C94FC0070
:100020000C94FC000C94FC000C94B4070C9426086F
:100030000C94FC000C94FC000C94FC000C94FC0050
:100040000C94FC000C94FC000C94FC000C94FC0040
:100050000C94FC000C94FC000C94FC000C946A07BB
:100060000C94FC000C94FC000C94FC000C94FC0020
:100070000C94FC000C94FC000C94FC000C94FC0010
:100080000C94FC000C94FC000C94FC000C94FC0000
:100090000C9446040C94FC000C94FC000C94FC00A2
:1000A0000C94FC000C94FC000C94FC008E0A910A49
:1000B000800A840A880AB20AB20AB20A950A990A20
:1000C0009D0AA30AA70AB20AAD0A080B000202029F
:1000D00001000904000001020200000524001001D3
:1000E0000524010101042402060524060001070578
:1000F000810310004009040100020A000000070506
:1001000002024000000705830240000004030904C6
:1001100012010002EF02014041234180000101026F
:10012000030141726475696E6F204C4C430041724B
:100130006475696E6F2059756E000000000025001F
:1001400028002B002E0031000404040404030405DD
:100150000202020204030202020206060606060664
:10016000040402020204040408020110408040104A
:1001700020408040800802040180402010020110CD
:100180008010204040200000000200090F00000302
:100190000401000C0000000000000000000000004E
:1001A0000000000000006A1011241FBECFEFDAE04B
:1001B000DEBFCDBF12E0A0E0B1E0E6E8F8E202C0A9
:1001C00005900D92AC3BB107D9F724E0ACEBB2E05F
:1001D00001C01D92A330B207E1F710E0C4EDD0E0FA
:1001E00004C02197FE010E940613C33DD107C9F741
:1001F0000E94640D0C9441140C940000CF92DF9285
:10020000EF92FF920F931F93CF93DF936C017A01CC
:100210008B01C0E0D0E0CE15DF0581F0D8016D91F3
:100220008D01D601ED91FC910190F081E02DC60188
:100230000995892B11F02196EECF7E01C701DF9140
:10024000CF911F910F91FF90EF90DF90CF90089585
:10025000CF93DF931F92CDB7DEB76983DC01ED91B9
:10026000FC910280F381E02D41E050E0BE016F5F20
:100270007F4F09950F90DF91CF91089583E0809390
:10028000E9008091F200882319F08AE38093E80066
:100290000895FC018485958597FD0BC09FB7F89460
:1002A00082E08093E9008091F2009FBF90E0019688
:1002B00008959FB7F89482E08093E9008091F2005E
:1002C0009FBF90E0089585ED8093BC008091BC00B5
:1002D00084FDFCCF1092720308954091DC02262F1A
:1002E00030E0240F311D21323105DCF420917203FE
:1002F0002430C9F4FC0180E090E0861758F4309176
:10030000DC022191DC01A454BD4FA30FB11D2C933D
:100310000196F3CF8091DC02680F6093DC0280E0ED
:10032000089581E0089582E008950895089508955C
:10033000E091740380917303E81730F4F0E0EB5818
:10034000FC4F808190E008958FEF9FEF089590918A
:10035000740380917303981750F4E92FF0E0EB5881
:10036000FC4F208130E09F5F9093740302C02FEF19
:100370003FEFC90108958091730390E020917403C9
:10038000821B91090895CF92DF92EF92FF920F9313
:100390001F93CF93DF937C01CB018A012091280327
:1003A000222389F0EB016B01C40ED51ECC15DD05AF
:1003B00069F06991D701ED91FC910190F081E02DF8
:1003C000C7010995F3CF642F0E946D01C801DF9129
:1003D000CF911F910F91FF90EF90DF90CF900895F4
:1003E000CF93DF931F92CDB7DEB7698320912803A7
:1003F0002223D1F020914B03203240F021E030E065
:10040000FC013383228380E090E015C080912903B2
:10041000E82FF0E0E65DFC4F998190838F5F809339
:10042000290380934B0305C061E0CE0101960E9431
:100430006D0181E090E00F90DF91CF9108950895D4
:1004400080E090E0089508958F929F92AF92BF92BE
:10045000CF92DF92EF92FF920F931F93CF93DF9390
:10046000CDB7DEB762970FB6F894DEBF0FBECDBF33
:100470008B0124E2DB011D922A95E9F744E250E06A
:1004800060E070E0F8014083518362837383DC0194
:1004900016964D915D916D917C911997448355838A
:1004A0006683778343E050E060E070E040875187E7
:1004B000628773872FB7F89440910C0350910D0316
:1004C00060910E0370910F032FBF408B518B628B95
:1004D000738BFE0131962CE0DF011D922A95E9F71E
:1004E000AE01435F5F4F26E0FA0111922A95E9F7CA
:1004F0006AE170E00E948D0C6D857E85072E000CF0
:10050000880B990B0E94BD1120E030E040E85DE3CC
:100510000E9472124B015C016F857889072E000CD6
:10052000880B990B0E94BD1120E030E040E85DE3AC
:100530000E9472126B017C0169897A89072E000C76
:10054000880B990B0E94BD1120E030E040E85DE38C
:100550000E947212D80154968D929D92AD92BC92D7
:100560005797F801C08ED18EE28EF38E5C966D9314
:100570007D938D939C935F9781E062960FB6F8947C
:10058000DEBF0FBECDBFDF91CF911F910F91FF90C6
:10059000EF90DF90CF90BF90AF909F908F90089595
:1005A0008F929F92AF92BF92CF92DF92EF92FF9283
:1005B0000F931F93CF93DF936C017B018A0180918E
:1005C0000B01882309F45CC080911103882309F48E
:1005D00057C080910A0380FF05C08091E0008260CF
:1005E0008093E000E801B12C8AEFA82E93E0892ED9
:1005F0002AE3922E209711F4BB20D9F10E94100714
:1006000081110AC0AA94AA20D9F161E070E080E0CB
:1006100090E00E942107EECF282F30E0C217D307C9
:100620000CF48C2F9FB7F8948092E9002091E80099
:1006300025FF1DC0282F30E0C21BD30BF7018150CE
:1006400020F041914093F100FACFE20EF31EBB205F
:1006500019F09092E8000AC08091E80085FD07C07B
:100660009092E800BB24B394209709F0B12C9FBF6F
:10067000C1CF5D9884E680930B031016110644F0F9
:1006800081E090E0F6019383828380E090E001C0F6
:10069000C801DF91CF911F910F91FF90EF90DF90F4
:1006A000CF90BF90AF909F908F9008950E941007B9
:1006B00090E008950F931F93CF93DF931F92CDB7D0
:1006C000DEB78C01FC018485958597FF0EC0CE01B5
:1006D00001960E94E206019719F4898190E002C018
:1006E0008FEF9FEFF80195878487F80184859585C2
:1006F0000F90DF91CF911F910F910895CF93DF93CA
:100700001F92CDB7DEB7FC018485958597FD05C0A6
:100710002FEF3FEF358724870BC0CE0101960E9453
:10072000E206019719F4898190E002C08FEF9FEFF4
:100730000F90DF91CF9108950E942D140F931F9376
:10074000CF93DF938C01EB0188E2FB0111928A9534
:10075000E9F74BE050E068EB71E0CE010E94321403
:100760001B8681E090E0A0E0B0E08C879D87AE879B
:10077000BF87F80186819781A085B185888B998B89
:10078000AA8BBB8B83E090E0A0E0B0E08C8B9D8BCC
:10079000AE8BBF8B1CA21DA21EA21FA2188E198E8B
:1007A0001A8E1B8E1C8E1D8E1E8E1F8E8AE097ED5C
:1007B000A3E2BCE388A399A3AAA3BBA3DF91CF9133
:1007C0001F910F9108950C94A41389E591E00E9464
:1007D000D40666E083E00E94D70C8AE10E94030DF4
:1007E000682F60688AE10E94D70C82E691E00E943F
:1007F000D40664E670E080E090E00E94210761E0AA
:1008000084E00E94D70C60E085E00E94D70C61E094
:100810008CE00C94D70C4091070350910803209171
:1008200005033091060342175307B4F49091E80092
:100830009570E1F39091E80092FD19C08093F1006A
:10084000809107039091080301968F739927892B54
:1008500019F48EEF8093E8008091070390910803CC
:100860000196909308038093070381E0089580E048
:100870000895615030F02091F100FC012083019631
:10088000F8CF289884E68093100308951F920F9262
:100890000FB60F9211242F933F934F935F936F9353
:1008A0007F938F939F93AF93BF93EF93FF93809129
:1008B000B900887F803609F49CC068F5883209F455
:1008C0005BC090F4803109F454C038F4882309F4F3
:1008D000F6C0883009F44DC0F6C0883109F44CC028
:1008E000803209F45DC0EFC0803409F468C048F478
:1008F000803309F455C0883309F0E5C08093700354
:10090000D8C0803509F44FC0883509F45DC08834FB
:1009100009F0D9C0D6C0883909F4C7C0A8F488370F
:1009200009F467C038F4883609F463C0803709F4E5
:1009300060C0C9C0883809F4B8C0803909F45FC004
:10094000803809F0C0C05BC0803B09F486C038F431
:10095000803A09F466C0883A09F47FC0B4C0803C8C
:1009600009F4A7C0883C09F4A4C0883B09F48AC0F4
:10097000AAC080916D0310C090916F0380916E03A7
:10098000981770F5E0916F0381E08E0F80936F03ED
:10099000F0E0E45BFC4F80818093BB0085EC86C077
:1009A000809370038EC0E0916F0381E08E0F80937F
:1009B0006F038091BB00F0E0E45BFC4F808390917B
:1009C0006F0380916E036EC0E0916F0381E08E0F24
:1009D00080936F038091BB00F0E0E45BFC4F808369
:1009E0008091710381116DC081E080936C0384EA72
:1009F00061C083E0809372031092FE02CFCF80919A
:100A0000FE02803208F051C0E091FE0281E08E0FBC
:100A10008093FE028091BB00F0E0E252FD4F8083A4
:100A2000BDCF85EC8093BC00109272038091FE02D2
:100A3000803230F4E091FE02F0E0E252FD4F10828D
:100A40006091FE0270E0E0912403F09125038EEDA9
:100A500092E009951092FE0236C084E08093720302
:100A60001092DD021092DC02E0912603F091270340
:100A700009958091DC02811105C081E08093DC0240
:100A80001092BC02E091DD0281E08E0F8093DD02C6
:100A9000F0E0E454FD4F80818093BB009091DD0233
:100AA0008091DC02981708F479CF85E88093BC0028
:100AB0000AC085EC8093BC001092720304C01092AF
:100AC00070030E946301FF91EF91BF91AF919F91DD
:100AD0008F917F916F915F914F913F912F910F90E7
:100AE0000FBE0F901F901895089580911C038111DF
:100AF0000DC082E08093180384E080931903109264
:100B00001B0310921A0381E080931C0388E193E099
:100B100008953FB7F8948091140390911503A09124
:100B20001603B091170326B5A89B05C02F3F19F0F7
:100B30000196A11DB11D3FBFBA2FA92F982F88275D
:100B4000820F911DA11DB11DBC01CD0142E0660FB8
:100B5000771F881F991F4A95D1F70895DF92EF926A
:100B6000FF920F931F93CF93DF93D82EF92EE42E8D
:100B7000062F10E0C8010196880F0E940B0483E045
:100B80000E940B04CD2DDF2D0C0F1D1FC017D107A8
:100B900089F0E7FE03C0FE01849101C088810E94B4
:100BA0000B04F82E80E00E940B048F212196811106
:100BB000EDCF01C081E0DF91CF911F910F91FF90A8
:100BC000EF90DF900895DF92EF92FF920F931F93C3
:100BD000CF93DF93D82E8A017B01E40EF51EEB0143
:100BE000CE15DF0571F0D7FE03C0FE01849101C070
:100BF00088810E940B0421968111F2CF8FEF9FEF25
:100C000001C0C801DF91CF911F910F91FF90EF902C
:100C1000DF9008950F931F93CF93DF931F92CDB76B
:100C2000DEB782E0898342E450E06AEC70E080E85D
:100C30000E94E3050E947505DC0112960D911C913E
:100C400013970115110589F0D801ED91FC910280EF
:100C5000F381E02DBE016F5F7F4FC801099597FDBD
:100C600004C0F80100851185ECCF89810F90DF91D8
:100C7000CF911F910F9108950E94340D80E00E9442
:100C8000030D60E081E00E94D70C60E082E00E94EA
:100C9000D70C61E084E00E94D70C60E085E00E9400
:100CA000D70C60E08DE00E94D70C60E08EE00E94DF
:100CB000D70C60E08FE00E94D70C60E080E10E94DA
:100CC000D70C64E683E10E94D70C8AE10E94030DF1
:100CD000682F6F778AE10E94D70C8DE10E94030D87
:100CE000682F60628DE10E94D70C81E008951F9308
:100CF000CF93DF93162FC3EFD3E09B8121E02093A6
:100D0000280390934A031092290310924B03AC815D
:100D1000BD81ED91FC9111970190F081E02D682F3C
:100D2000CD0109958C819D81DC01ED91FC910190B3
:100D3000F081E02D612F09958C819D810E94310CFD
:100D400081E0DF91CF911F910895CF93DF93C3EF9F
:100D5000D3E09B8121E02093280390934A031092D3
:100D6000290310924B03AC81BD81ED91FC91119749
:100D70000190F081E02D682FCD0109958C819D8136
:100D80000E94310C41E06B818C819D810E94E80BB7
:100D90008C819D81DC01ED91FC910284F385E02D35
:100DA0000995DF91CF910895CF93DF930E94C10AF7
:100DB000EC0180E592E00E94C10A8C0F9D1FDF913B
:100DC000CF91089520911103211103C08FEF9FEF60
:100DD00008955FB7F89422E02093E9002091F20093
:100DE00030E01216130614F421E030E0422FFC012B
:100DF00084E6415038F02898809310039091F100D8
:100E00009193F7CF2115310521F08091F2008823CD
:100E100019F05FBFC90108958BE68093E800F9CF10
:100E20002FB7F89483E08093E9009091E800892F30
:100E3000807295FF04C09091F20080E4891B2FBF5F
:100E400008958F929F92AF92BF92CF92DF92EF92CE
:100E5000FF926B017C010E9489054B015C01C1146A
:100E6000D104E104F104F1F00E948905DC01CB0119
:100E700088199909AA09BB09883E9340A105B105C3
:100E800070F321E0C21AD108E108F10888EE880E5B
:100E900083E0981EA11CB11CC114D104E104F1042B
:100EA00019F7DDCFFF90EF90DF90CF90BF90AF901C
:100EB0009F908F900895E3EFF3E082879387682FE8
:100EC0008DE390E00E9477066EE170E080E090E0B4
:100ED0000C9421071F920F920FB60F9211242F939B
:100EE0003F938F939F93AF93BF9380910C03909107
:100EF0000D03A0910E03B0910F033091130323E073
:100F0000230F2D3720F40196A11DB11D05C026E841
:100F1000230F0296A11DB11D2093130380930C0390
:100F200090930D03A0930E03B0930F0380911403CD
:100F300090911503A0911603B09117030196A11D7E
:100F4000B11D8093140390931503A0931603B093DF
:100F50001703BF91AF919F918F913F912F910F9068
:100F60000FBE0F901F9018951F920F920FB60F9201
:100F700011248F939F938091E1009091E100937FE2
:100F80009093E10083FF0FC01092E90091E09093ED
:100F9000EB001092EC0092E39093ED00109211039D
:100FA00098E09093F00082FF20C093E09093E900D6
:100FB0009091F200992319F09AE39093E8009091B0
:100FC0000B03992339F090910B03915090930B03ED
:100FD000992389F190911003992339F0909110038E
:100FE000915090931003992341F184FF10C0809198
:100FF000E2008E7E81608093E2008091E1008F7E2E
:101000008093E10080910A038E7E806111C080FF91
:1010100016C08091E2008E7E80618093E200809114
:10102000E1008E7E8093E10080910A038E7E8160D4
:1010300080930A0304C05D9ACDCF289AD6CF9F91A2
:101040008F910F900FBE0F901F9018951F920F92C7
:101050000FB60F921124CF92DF92EF92FF920F936F
:101060001F932F933F934F935F936F937F938F9330
:101070009F93AF93BF93EF93FF93CF93DF93CDB73E
:10108000DEB76C97DEBFCDBF1092E9008091E8001B
:1010900083FFFBC168E0CE0145960E94390482EFD0
:1010A0008093E8008D8987FF05C09091E80090FF4C
:1010B000FCCF03C09EEF9093E800982F907609F044
:1010C000C6C09E894F89588D2F89F88C91110CC00C
:1010D000803829F4809109038093F10002C01092B6
:1010E000F1001092F10045C1913051F4811141C1DC
:1010F0004130510509F03DC1809109038D7F0BC03E
:10110000933061F4811135C14130510509F031C18D
:10111000809109038260809309032BC1953049F4C3
:101120008091E80080FFFCCF822F80688093E300ED
:1011300020C1963009F05EC00B8D1C8D22E010920C
:10114000E9001092080310920703F21232C01092C5
:101150000603109205030E940A0699E0BE016F5F24
:101160007F4FDB01E92F1D92EA95E9F79983FA8217
:1011700091E09E8390EA98879AEF998720910703E0
:1011800030910803275F3F4F3C832B838D83109260
:10119000E9001092080310920703109306030093CE
:1011A000050349E050E080E00E94E3050E940A0642
:1011B000E0C010930603009305030E947505DC014F
:1011C00012960D911C9113970115110509F4BBC0DE
:1011D000D801ED91FC910480F581E02DBE016B5E9C
:1011E0007F4FC8010995009709F0C7C0F801008535
:1011F0001185EACF973009F445C1983021F481E098
:101200008093F100B6C0993009F0B3C0837009F043
:1012100039C1E3E1F1E081E031E096E32081211181
:1012200009C08EE78093EA001092EA008F898093CC
:1012300011039FC08093E9003093EB00219120932C
:10124000EC009093ED008F5F873041F7EACF8B8DF4
:101250009C8D1092E900109208031092070390935E
:10126000060380930503898D811153C08E899D8962
:10127000913A49F4813209F005C147E050E064E059
:1012800071E080E0BBC0913209F0FCC0833269F4A8
:101290008F89988DA0E0B0E08093000190930101C8
:1012A000A0930201B093030164C0803269F480917D
:1012B000E80082FFFCCF67E084E091E00E943904FF
:1012C0008BEF8093E80055C0823209F052C08F89BD
:1012D00080930B01EEEFFFE7859194918B3F9C4D3E
:1012E00019F0E0E0F8E002C0EEEFFAE080910401CE
:1012F00090910501A0910601B0910701803B9440B7
:10130000A105B10509F09EC080910B0180FF79C055
:1013100099C00E947505FC01028113810115110518
:1013200009F4B0C0D801ED91FC910190F081E02D5D
:10133000BE016B5E7F4FC801099581111AC0F8018B
:1013400000851185EBCFF1E0FF1609F44EC0F3E004
:10135000FF1298C08F89882309F44AC0823089F42B
:1013600040E86BE08EE291E00E94AE05882309F42C
:1013700089C08EEF8093E80088C018161906CCF358
:1013800081C0813029F440E86BE082E291E0ECCF4B
:10139000833009F077C00E947505DC011296ED904C
:1013A000FC9013978E010F5F1F4F6801E114F10449
:1013B00079F0D701ED91FC910680F781E02DB8011D
:1013C000C7010995080F111DF701E084F184EECFE4
:1013D000D8011C92F60101900020E9F73197BF0176
:1013E0006C197D0940E0C601BFCF60E171E002C029
:1013F0006CE071E0FB01449150E080E80E94E3055D
:10140000B8CFEE3F2AE0F20751F080819181873713
:10141000A7E79A0721F09093FF0A8093FE0A87E7D7
:1014200097E79183808380916000809312039BE013
:1014300088E10FB6F894A895809360000FBE909352
:10144000600097CF808191818737974709F091CFCE
:10145000A89580916000886180936000809112035C
:1014600080936000EE3FBAE0FB0739F08091FE0AFE
:101470009091FF0A918380837CCF1092FF0A109293
:10148000FE0A77CF81E28093EB006C960FB6F8945A
:10149000DEBF0FBECDBFDF91CF91FF91EF91BF9126
:1014A000AF919F918F917F916F915F914F913F91FC
:1014B0002F911F910F91FF90EF90DF90CF900F90A1
:1014C0000FBE0F901F90189590E0FC01EA57FE4F59
:1014D0004491FC01E959FE4F2491FC01E85BFE4F69
:1014E0008491882309F44CC04423E1F150E0FA01CF
:1014F0003197EF30F105B0F5EA5AFF4F0C9406131F
:10150000909180009F7707C0909180009F7D03C0DD
:1015100090918000977F9093800024C094B59F772E
:1015200002C094B59F7D94BD1DC0909190009F779F
:1015300007C0909190009F7D03C090919000977F8D
:10154000909390000FC09091C0009F7703C090913E
:10155000C0009F7D9093C00005C09091C200977F0E
:101560009093C200E82FF0E0EE0FFF1FE65CFE4F05
:10157000A591B4918FB7F894EC91E22BEC938FBFC7
:101580000895009769F0FC0101900020E9F7319778
:10159000AF01481B590BBC0185E993E00C94D002C4
:1015A00080E090E008950C94C10A8F929F92AF92D0
:1015B000BF920F931F93CF93DF93CDB7DEB7A19761
:1015C0000FB6F894DEBF0FBECDBF19A2423008F4AB
:1015D0004AE08E010F5D1F4F842E912CA12CB12C5F
:1015E000A50194010E94E412E62FB901CA0101503D
:1015F0001109EA3014F4E05D01C0E95CD801EC9314
:10160000232B242B252B61F7C8010E94C10AA19628
:101610000FB6F894DEBF0FBECDBFDF91CF911F9103
:101620000F91BF90AF909F908F9008958F929F924F
:10163000AF92BF92CF92DF92EF92FF920F931F93E0
:10164000CF93DF936B017C01142F9B01AC010E94AF
:10165000DF12882319F080EB92E027C04601570182
:10166000E894B7F82FEF3FEF4FE75FE7C501B4010C
:101670000E94DF1281110DC02FEF3FEF4FE75FE7B0
:10168000C501B4010E940E1118161CF484EB92E0FF
:101690000CC02FEF3FEF4FE75FE4C701B6010E9498
:1016A0006D12181684F488EB92E0DF91CF911F91B0
:1016B0000F91FF90EF90DF90CF90BF90AF909F90F1
:1016C0008F900C94C10A2FEF3FEF4FE75FECC701FB
:1016D000B6010E940E1187FDE6CF20E030E0A9019F
:1016E000C701B6010E940E1187FF0BC06DE285E9AC
:1016F00093E00E942801EC01F7FAF094F7F8F094D7
:1017000002C0C0E0D0E000E060E070E080E09FE375
:10171000101741F020E030E040E251E40E94131144
:101720000F5FF6CFA70196010E94A2106B017C010A
:101730000E948C114B015C014AE00E94D50AC80F3F
:10174000D91F1123B9F1C501B4010E94BB119B013E
:10175000AC01C701B6010E94A1106B017C016EE2D1
:1017600085E993E00E942801C80FD91F20E030E0EE
:1017700040E251E4C701B6010E9472124B015C01C4
:101780000E948C116B01E12CF12C4AE0C701B601DB
:101790000E94D50AC80FD91FC701B6010E94BB110C
:1017A0009B01AC01C501B4010E94A1106B017C0139
:1017B0001150E1F6CE01DF91CF911F910F91FF9073
:1017C000EF90DF90CF90BF90AF909F908F90089553
:1017D000809172038111FCCF413208F040E281E038
:1017E00080937203809371039FEF90937003109224
:1017F0006F03940F90936E0380936D0380916D033C
:10180000660F682B60936D0380916C03813061F4E7
:1018100010926C0380916D038093BB008091BC009B
:1018200083FDF8CF85EC01C085EE8093BC008091EC
:1018300072038130E1F380916F03841710F44091BB
:101840006F03ECE4F3E0A5E7B3E080E0841721F058
:1018500091919D938F5FFACF1092740380937303DD
:10186000089530914B03313208F04BC080917203E0
:101870008111FCCF90914A0322E02093720321E072
:10188000209371032FEF2093700310926F03309316
:101890006E03EAE2F3E0ACE4B3E020E0321721F0BB
:1018A00041914D932F5FFACF10926D0320916D03FC
:1018B000990F922B90936D0390916C03913061F48A
:1018C00010926C0390916D039093BB009091BC00BB
:1018D00093FDF8CF95EC01C095EE9093BC009091EC
:1018E00072039230E1F3909170039F3F79F0809101
:1018F0007003803241F080917003803331F084E0D6
:1019000005C081E003C082E001C083E0109229039A
:1019100010924B03109228030895EF92FF920F93B9
:101920001F93CF93DF938C017A01DC0113968C9186
:10193000139791E09093280380934A031092290310
:1019400010924B0314968D919C911597DC01ED91AB
:10195000FC910190F081E02D0995F8018481958139
:101960000E94310C46E0D80113966C91139714969F
:101970008D919C9115970E94E80BE701B6E0EB0E64
:10198000F11CF80184819581DC01ED91FC910284C8
:10199000F385E02D09958993CE15DF0591F781E058
:1019A000DF91CF911F910F91FF90EF900895CF930A
:1019B000C62F91E0909328039AE590934A031092E2
:1019C000290310924B03A091E503B091E603ED913A
:1019D000FC9111970190F081E02D682FCD010995C0
:1019E0008091E5039091E603DC01ED91FC9101907B
:1019F000F081E02D6C2F09958091E5039091E6032D
:101A0000CF910C94310C91E0909328039AE5909338
:101A10004A031092290310924B03A091E503B09161
:101A2000E603ED91FC9111970190F081E02D682F74
:101A3000CD0109958091E5039091E6030E94310C58
:101A400041E06AE58091E5039091E6030E94E80B8E
:101A50008091E5039091E603DC01ED91FC91028415
:101A6000F385E02D09950895109274031092730385
:101A70001092290310924B031092720381E080931D
:101A8000710310926C0382E00E94640A83E00E945A
:101A9000640AE9EBF0E080818E7F808380818D7F16
:101AA000808388E48093B80085E48093BC0085E956
:101AB00091E0909327038093260386E991E0909329
:101AC0002503809324030895CF93DF93CDB7DEB72A
:101AD00062970FB6F894DEBF0FBECDBF789484B581
:101AE000826084BD84B5816084BD85B5826085BD1A
:101AF00085B5816085BD80916E00816080936E00A8
:101B00001092810080918100826080938100809199
:101B1000810081608093810080918000816080934A
:101B2000800080919100826080939100809191006B
:101B300081608093910080919000816080939000FB
:101B40008091C10084608093C1008091C100826057
:101B50008093C1008091C10081608093C100809119
:101B6000C30081608093C3008091C0008260809335
:101B7000C0008091C20081608093C20080917A0091
:101B8000846080937A0080917A00826080937A00EA
:101B900080917A00816080937A0080917A008068D9
:101BA00080937A00109211031092090310920A0395
:101BB0008091D70081608093D70080EA8093D8001D
:101BC00089B5806189BD89B5826089BD09B400FE8F
:101BD000FDCF61E070E080E090E00E9421078091FD
:101BE000D8008F7C80618093D8008091E000807F56
:101BF0008093E0008091E1008E7E8093E1008DE093
:101C00008093E200559A209A8FEF9FEF9093A20362
:101C10008093A10388E691E00E94D4068BE791E0CF
:101C20000E94D40687E991E00E94D40687EA91E0F9
:101C30000E94D4068FEB91E00E94D4068DE392E0DF
:101C40000E94D4060E94340D80E090E00E94A50618
:101C5000803A51F480E090E00E945B0760E28FE3FD
:101C600090E00E94770611C068EE73E080E090E09B
:101C70000E94210780E090E00E94A506803A51F37F
:101C80008AE792E00E94D30A78C080E090E00E9448
:101C9000A506803A39F06AE070E080E090E00E94AA
:101CA0002107F3CF62E370E080E090E00E9421071B
:101CB00060E08EE390E00E9477066AE070E080E0EA
:101CC00090E00E94210760E087E090E00E947706A4
:101CD00060E08FE390E00E9477066AE070E080E0C9
:101CE00090E00E9421078CE090E00E945B0764E195
:101CF00070E080E090E00E9421070091FD031091C8
:101D0000FE0380E090E00E945B0769E170E080E004
:101D100090E00E94210760E087E090E00E94770653
:101D200060E88FE390E00E9477066AE070E080E070
:101D300090E00E942107C8010E945B0764E170E007
:101D400080E090E00E94210707EE13E01093E60385
:101D50000093E5030E943C0666E083E00E94D70CF6
:101D60001093E6030093E5030E943C06811107C02F
:101D70008BED91E00E94D30A01C0FFCFFFCFCE01CF
:101D800001965C018CE0F50111928A95E9F78E01CC
:101D9000035F1F4F86E0F80111928A95E9F7A801C9
:101DA00068E070E083EF93E00E948D0CCF84D888C8
:101DB000E988FA886D857E85072E000C880B990BC3
:101DC0000E94BD1120E030E048EC52E40E94131163
:101DD00069837A838B839C83B601DD0C880B990B16
:101DE0000E94BD1120E030E048EC52E40E94131143
:101DF0006D837E838F839887B701FF0C880B990BC7
:101E00000E94BD1120E030E048EC52E40E94131122
:101E100069877A878B879C878EE092E00E94D30A3D
:101E200069817A818B819C8142E00E94160B8DE151
:101E300092E00E94D30A6D817E818F81988542E075
:101E40000E94160B8CE292E00E94D30A69857A8583
:101E50008B859C8542E00E94160B8BE392E00E94EA
:101E6000D30A69817A818B819C810E94851170934C
:101E70000403609303036D817E818F8198850E94A6
:101E80008511709302036093010369857A858B85C0
:101E90009C850E948511709300036093FF022CE0E3
:101EA000722E36E0632E40E0842E40E0942EF50141
:101EB000872D11928A95E9F7F801862D11928A955E
:101EC000E9F7A80168E070E083EF93E00E948D0CD1
:101ED000CF84D888E988FA886D857E85072E000C26
:101EE000880B990B0E94BD1120E030E048EC52E4D1
:101EF0000E94131169837A838B839C83B601DD0C66
:101F0000880B990B0E94BD1120E030E048EC52E4B0
:101F10000E9413116D837E838F839887B701FF0C16
:101F2000880B990B0E94BD1120E030E048EC52E490
:101F30000E94131169877A878B879C878EE392E0D2
:101F40000E94D30A69817A818B819C8142E00E9440
:101F5000160B84E492E00E94D30A6D817E818F810A
:101F6000988542E00E94160B8AE492E00E94D30A10
:101F700069857A858B859C8542E00E94160B8BE3F0
:101F800092E00E94D30A80E592E00E94C10A85E3B4
:101F900090E00E94A506D82EE82EF12C83E592E071
:101FA0000E94D30A6D2D629566956695637070E008
:101FB00080E090E04AE00E94D50A85E692E00E9427
:101FC000D30AB70184E0759567958A95E1F7637048
:101FD00070E080E090E04AE00E94D50A8CE692E052
:101FE0000E94D30AB70175956795759567956370DB
:101FF00070E080E090E04AE00E94D50A84E792E039
:102000000E94D30A6D2D637070E080E090E04AE09A
:102010000E94D50A80E592E00E94C10A6091010306
:1020200070910203072E000C880B990B0E94BD11C2
:102030009B01AC016D817E818F8198850E94A110EA
:102040000E9485116B016091FF0270910003072EC1
:10205000000C880B990B0E94BD119B01AC01698596
:102060007A858B859C850E94A1100E9485117B0139
:102070006091030370910403072E000C880B990BE9
:102080000E94BD119B01AC0169817A818B819C8189
:102090000E94A1100E9485116330710514F00E9406
:1020A000E50393E0C916D10414F00E94E503E3E0D0
:1020B000EE16F10414F00E94E50364EF71E080E095
:1020C00090E00E9421078114910409F4F0CE0E944F
:1020D0000000EDCEE5E9F3E01382128248EE53E012
:1020E00060E070E044835583668377838DE191E0FF
:1020F000918380838FEF9FEF95878487A7EEB3E06E
:1021000013961C921E92129714964D935D936D93A5
:102110007C9317978FE291E011969C938E93E3EF57
:10212000F3E081E491E0918380834FEF5FEFBA01A8
:10213000468357836087718788E28383B583A4834E
:1021400008955058BB27AA270E94B9100C94331247
:102150000E94251238F00E942C1220F039F49F3F83
:1021600019F426F40C9422120EF4E095E7FB0C947B
:102170001C12E92F0E94441258F3BA176207730722
:102180008407950720F079F4A6F50C9466120EF4F6
:10219000E0950B2EBA2FA02D0B01B90190010C0177
:1021A000CA01A0011124FF27591B99F0593F50F48F
:1021B000503E68F11A16F040A22F232F342F4427E7
:1021C000585FF3CF469537952795A795F0405395DF
:1021D000C9F77EF41F16BA0B620B730B840BBAF0AF
:1021E0009150A1F0FF0FBB1F661F771F881FC2F71A
:1021F0000EC0BA0F621F731F841F48F4879577952E
:102200006795B795F7959E3F08F0B0CF9395880FE7
:1022100008F09927EE0F9795879508950E94F81179
:1022200008F481E008950E9427110C9433120E9453
:102230002C1258F00E94251240F029F45F3F29F03B
:102240000C941C1251110C9467120C9422120E94CF
:10225000441268F39923B1F3552391F3951B550B61
:10226000BB27AA2762177307840738F09F5F5F4F69
:10227000220F331F441FAA1FA9F335D00E2E3AF0A8
:10228000E0E832D091505040E695001CCAF72BD0C0
:10229000FE2F29D0660F771F881FBB1F2617370711
:1022A0004807AB07B0E809F0BB0B802DBF01FF2743
:1022B00093585F4F3AF09E3F510578F00C941C12F2
:1022C0000C9467125F3FE4F3983ED4F386957795BC
:1022D0006795B795F7959F5FC9F7880F911D9695FC
:1022E000879597F90895E1E0660F771F881FBB1F58
:1022F000621773078407BA0720F0621B730B840B05
:10230000BA0BEE1F88F7E09508950E948C1168942F
:10231000B1110C94671208950E944C1288F09F57D7
:1023200098F0B92F9927B751B0F0E1F0660F771FF9
:10233000881F991F1AF0BA95C9F714C0B13091F0EF
:102340000E946612B1E008950C946612672F782FF0
:102350008827B85F39F0B93FCCF3869577956795B4
:10236000B395D9F73EF490958095709561957F4F20
:102370008F4F9F4F0895E89409C097FB3EF49095C6
:102380008095709561957F4F8F4F9F4F9923A9F04E
:10239000F92F96E9BB279395F695879577956795DD
:1023A000B795F111F8CFFAF4BB0F11F460FF1BC021
:1023B0006F5F7F4F8F4F9F4F16C0882311F096E9B4
:1023C00011C0772321F09EE8872F762F05C0662362
:1023D00071F096E8862F70E060E02AF09A95660F1B
:1023E000771F881FDAF7880F9695879597F90895D4
:1023F000990F0008550FAA0BE0E8FEEF1616170616
:10240000E807F907C0F012161306E407F50798F07D
:10241000621B730B840B950B39F40A2661F0232B96
:10242000242B252B21F408950A2609F4A140A69512
:102430008FEF811D811D089597F99F6780E870E0F7
:1024400060E008959FEF80EC089500240A9416162A
:10245000170618060906089500240A941216130692
:10246000140605060895092E0394000C11F4882320
:1024700052F0BB0F40F4BF2B11F460FF04C06F5F3C
:102480007F4F8F4F9F4F089557FD9058440F551F12
:1024900059F05F3F71F04795880F97FB991F61F0E6
:1024A0009F3F79F087950895121613061406551F5D
:1024B000F2CF4695F1DF08C0161617061806991FC9
:1024C000F1CF86957105610508940895E894BB27BE
:1024D00066277727CB0197F908950E94F81108F431
:1024E0008FEF08950E9485120C9433120E942512DA
:1024F00038F00E942C1220F0952311F00C941C123D
:102500000C94221211240C9467120E94441270F34E
:10251000959FC1F3950F50E0551F629FF001729F88
:10252000BB27F00DB11D639FAA27F00DB11DAA1F97
:10253000649F6627B00DA11D661F829F2227B00DE4
:10254000A11D621F739FB00DA11D621F839FA00D6F
:10255000611D221F749F3327A00D611D231F849FBF
:10256000600D211D822F762F6A2F11249F57504016
:102570009AF0F1F088234AF0EE0FFF1FBB1F661F91
:10258000771F881F91505040A9F79E3F510580F05A
:102590000C941C120C9467125F3FE4F3983ED4F342
:1025A000869577956795B795F795E7959F5FC1F7FE
:1025B000FE2B880F911D9695879597F908950E9497
:1025C000F811880B990B0895A1E21A2EAA1BBB1BC8
:1025D000FD010DC0AA1FBB1FEE1FFF1FA217B307EF
:1025E000E407F50720F0A21BB30BE40BF50B661F05
:1025F000771F881F991F1A9469F7609570958095C9
:1026000090959B01AC01BD01CF010895EE0FFF1F16
:102610000590F491E02D09940F931F93CF93DF93CE
:102620008230910510F482E090E0E0910104F09195
:10263000020420E030E0A0E0B0E0309719F14081E2
:1026400051810281138148175907C8F084179507F3
:1026500069F4109731F012960C93129713961C930D
:1026600027C0009301041093020422C021153105F4
:1026700019F04217530718F49A01BD01EF01DF0169
:10268000F801DBCF21153105F9F0281B390B243077
:10269000310580F48A819B816115710521F0FB0170
:1026A0009383828304C09093020480930104FE010B
:1026B000329644C0FE01E20FF31F819391932250A2
:1026C0003109398328833AC02091FF0330910004F7
:1026D000232B41F420910E0130910F01309300041F
:1026E0002093FF0320910C0130910D01211531053C
:1026F00041F42DB73EB74091100150911101241BB8
:10270000350BE091FF03F0910004E217F307A0F40A
:102710002E1B3F0B2817390778F0AC014E5F5F4F37
:102720002417350748F04E0F5F1F50930004409365
:10273000FF038193919302C0E0E0F0E0CF01DF91CD
:10274000CF911F910F910895CF93DF93009709F4D4
:1027500081C0FC01329713821282A0910104B091D2
:102760000204109781F420813181820F931F209100
:10277000FF03309100042817390751F5F093000446
:10278000E093FF0367C0ED0120E030E0CE17DF07E4
:1027900040F44A815B819E0141155105F1F0EA0147
:1027A000F5CFD383C28340815181840F951FC81711
:1027B000D90759F488819981840F951F02969183D6
:1027C00080838A819B81938382832115310529F43B
:1027D000F0930204E09301043DC0E901FB83EA8326
:1027E00049915991C40FD51FEC17FD0761F4808101
:1027F0009181840F951F0296E901998388838281D4
:1028000093819B838A83E0E0F0E012968D919C9106
:102810001397009719F0FD01DC01F7CF8D919C9182
:1028200011979D012E5F3F4F820F931F2091FF0351
:10283000309100042817390769F4309729F4109271
:1028400002041092010402C013821282B0930004A9
:10285000A093FF03DF91CF91089581E090E0F89479
:102860000C944114FB01DC014150504048F00190B0
:102870000D920020C9F701C01D9241505040E0F771
:062880000895F894FFCF5B
:10288600FFFFFFFF00E1000000000000000003045E
:10289600800000C18081000000000000002801D0F7
:1028A6000256033E0149017E035A0300000000F070
:1028B60001C30120029701BB01A701980100000096
:1028C600007405E303230224029E030000000000B7
:1028D60000000023029C039C03504C415942414393
:1028E6004B00434C49434B00486170746963205365
:1028F6006B65746368204E6F20380062793A205405
:10290600552044656C66742050692D546F75636854
:102916002047726F75700056657273696F6E204E30
:102926006F3A20302E310053656E736F72205265F8
:102936007175697265643A20424E4F3035350042F2
:102946006F6172642052657175697265643A2041DF
:10295600726475696E6F20556E6F004E6F2044521B
:1029660056206465746563746564202E2E2E20439C
:102976006865636B20796F757220776972696E6717
:10298600206F7220493243204144445221002C4298
:102996006173656C696E6520583A202C002C426183
:1029A60073656C696E6520593A202C002C42617360
:1029B600656C696E65205A3A202C000909002C586E
:1029C6003A202C002C593A202C002C5A3A202C0064
:1029D6000D0A0043414C4942524154494F4E3A2058
:1029E6005379733D00204779726F3D002041636340
:1029F600656C3D00204D61673D004E6F20424E4F95
:102A0600303535206465746563746564202E2E2E1A
:102A160020436865636B20796F75722077697269E8
:102A26006E67206F72204932432041444452210090
:0C2A36006E616E00696E66006F766600CF
:00000001FF
